{
  "contractName": "MyAdmin",
  "abi": [
    {
      "anonymous": false,
      "inputs": [
        {
          "indexed": true,
          "internalType": "address",
          "name": "patient",
          "type": "address"
        },
        {
          "indexed": false,
          "internalType": "string",
          "name": "identity",
          "type": "string"
        }
      ],
      "name": "MedicalRecordAdded",
      "type": "event"
    },
    {
      "inputs": [
        {
          "internalType": "address",
          "name": "",
          "type": "address"
        }
      ],
      "name": "patientRecords",
      "outputs": [
        {
          "internalType": "string",
          "name": "identity",
          "type": "string"
        },
        {
          "internalType": "uint256",
          "name": "weight",
          "type": "uint256"
        },
        {
          "internalType": "uint256",
          "name": "height",
          "type": "uint256"
        },
        {
          "internalType": "string",
          "name": "diseaseName",
          "type": "string"
        },
        {
          "internalType": "string",
          "name": "bloodType",
          "type": "string"
        },
        {
          "internalType": "uint256",
          "name": "onsetDate",
          "type": "uint256"
        },
        {
          "internalType": "string",
          "name": "diseaseDescription",
          "type": "string"
        }
      ],
      "stateMutability": "view",
      "type": "function",
      "constant": true
    },
    {
      "inputs": [
        {
          "internalType": "string",
          "name": "_identity",
          "type": "string"
        },
        {
          "internalType": "uint256",
          "name": "_weight",
          "type": "uint256"
        },
        {
          "internalType": "uint256",
          "name": "_height",
          "type": "uint256"
        },
        {
          "internalType": "string",
          "name": "_diseaseName",
          "type": "string"
        },
        {
          "internalType": "string",
          "name": "_bloodType",
          "type": "string"
        },
        {
          "internalType": "uint256",
          "name": "_onsetDate",
          "type": "uint256"
        },
        {
          "internalType": "string",
          "name": "_diseaseDescription",
          "type": "string"
        }
      ],
      "name": "addMedicalRecord",
      "outputs": [],
      "stateMutability": "nonpayable",
      "type": "function"
    }
  ],
  "bytecode": "0x608060405234801561001057600080fd5b50610bb2806100206000396000f3fe608060405234801561001057600080fd5b50600436106100365760003560e01c8063200a1b911461003b578063c3ce887914610071575b600080fd5b610055600480360381019061005091906104a8565b61008d565b604051610068979695949392919061057e565b60405180910390f35b61008b6004803603810190610086919061076a565b6102ef565b005b60006020528060005260406000206000915090508060000180546100b0906108ab565b80601f01602080910402602001604051908101604052809291908181526020018280546100dc906108ab565b80156101295780601f106100fe57610100808354040283529160200191610129565b820191906000526020600020905b81548152906001019060200180831161010c57829003601f168201915b50505050509080600101549080600201549080600301805461014a906108ab565b80601f0160208091040260200160405190810160405280929190818152602001828054610176906108ab565b80156101c35780601f10610198576101008083540402835291602001916101c3565b820191906000526020600020905b8154815290600101906020018083116101a657829003601f168201915b5050505050908060040180546101d8906108ab565b80601f0160208091040260200160405190810160405280929190818152602001828054610204906108ab565b80156102515780601f1061022657610100808354040283529160200191610251565b820191906000526020600020905b81548152906001019060200180831161023457829003601f168201915b50505050509080600501549080600601805461026c906108ab565b80601f0160208091040260200160405190810160405280929190818152602001828054610298906108ab565b80156102e55780601f106102ba576101008083540402835291602001916102e5565b820191906000526020600020905b8154815290600101906020018083116102c857829003601f168201915b5050505050905087565b60006040518060e00160405280898152602001888152602001878152602001868152602001858152602001848152602001838152509050806000803373ffffffffffffffffffffffffffffffffffffffff1673ffffffffffffffffffffffffffffffffffffffff168152602001908152602001600020600082015181600001908161037a9190610a88565b50602082015181600101556040820151816002015560608201518160030190816103a49190610a88565b5060808201518160040190816103ba9190610a88565b5060a0820151816005015560c08201518160060190816103da9190610a88565b509050503373ffffffffffffffffffffffffffffffffffffffff167f381664328a13775cdca4159b54873d48827358a58c62dac10944c743ecb7ad9b896040516104249190610b5a565b60405180910390a25050505050505050565b6000604051905090565b600080fd5b600080fd5b600073ffffffffffffffffffffffffffffffffffffffff82169050919050565b60006104758261044a565b9050919050565b6104858161046a565b811461049057600080fd5b50565b6000813590506104a28161047c565b92915050565b6000602082840312156104be576104bd610440565b5b60006104cc84828501610493565b91505092915050565b600081519050919050565b600082825260208201905092915050565b60005b8381101561050f5780820151818401526020810190506104f4565b60008484015250505050565b6000601f19601f8301169050919050565b6000610537826104d5565b61054181856104e0565b93506105518185602086016104f1565b61055a8161051b565b840191505092915050565b6000819050919050565b61057881610565565b82525050565b600060e0820190508181036000830152610598818a61052c565b90506105a7602083018961056f565b6105b4604083018861056f565b81810360608301526105c6818761052c565b905081810360808301526105da818661052c565b90506105e960a083018561056f565b81810360c08301526105fb818461052c565b905098975050505050505050565b600080fd5b600080fd5b7f4e487b7100000000000000000000000000000000000000000000000000000000600052604160045260246000fd5b61064b8261051b565b810181811067ffffffffffffffff8211171561066a57610669610613565b5b80604052505050565b600061067d610436565b90506106898282610642565b919050565b600067ffffffffffffffff8211156106a9576106a8610613565b5b6106b28261051b565b9050602081019050919050565b82818337600083830152505050565b60006106e16106dc8461068e565b610673565b9050828152602081018484840111156106fd576106fc61060e565b5b6107088482856106bf565b509392505050565b600082601f83011261072557610724610609565b5b81356107358482602086016106ce565b91505092915050565b61074781610565565b811461075257600080fd5b50565b6000813590506107648161073e565b92915050565b600080600080600080600060e0888a03121561078957610788610440565b5b600088013567ffffffffffffffff8111156107a7576107a6610445565b5b6107b38a828b01610710565b97505060206107c48a828b01610755565b96505060406107d58a828b01610755565b955050606088013567ffffffffffffffff8111156107f6576107f5610445565b5b6108028a828b01610710565b945050608088013567ffffffffffffffff81111561082357610822610445565b5b61082f8a828b01610710565b93505060a06108408a828b01610755565b92505060c088013567ffffffffffffffff81111561086157610860610445565b5b61086d8a828b01610710565b91505092959891949750929550565b7f4e487b7100000000000000000000000000000000000000000000000000000000600052602260045260246000fd5b600060028204905060018216806108c357607f821691505b6020821081036108d6576108d561087c565b5b50919050565b60008190508160005260206000209050919050565b60006020601f8301049050919050565b600082821b905092915050565b60006008830261093e7fffffffffffffffffffffffffffffffffffffffffffffffffffffffffffffffff82610901565b6109488683610901565b95508019841693508086168417925050509392505050565b6000819050919050565b600061098561098061097b84610565565b610960565b610565565b9050919050565b6000819050919050565b61099f8361096a565b6109b36109ab8261098c565b84845461090e565b825550505050565b600090565b6109c86109bb565b6109d3818484610996565b505050565b5b818110156109f7576109ec6000826109c0565b6001810190506109d9565b5050565b601f821115610a3c57610a0d816108dc565b610a16846108f1565b81016020851015610a25578190505b610a39610a31856108f1565b8301826109d8565b50505b505050565b600082821c905092915050565b6000610a5f60001984600802610a41565b1980831691505092915050565b6000610a788383610a4e565b9150826002028217905092915050565b610a91826104d5565b67ffffffffffffffff811115610aaa57610aa9610613565b5b610ab482546108ab565b610abf8282856109fb565b600060209050601f831160018114610af25760008415610ae0578287015190505b610aea8582610a6c565b865550610b52565b601f198416610b00866108dc565b60005b82811015610b2857848901518255600182019150602085019450602081019050610b03565b86831015610b455784890151610b41601f891682610a4e565b8355505b6001600288020188555050505b505050505050565b60006020820190508181036000830152610b74818461052c565b90509291505056fea2646970667358221220e5cdedf6a9ed5fe3f1fa7037d4be8859106d59f312ca5487a2f22416eeb4155064736f6c63430008100033",
  "immutableReferences": {},
  "source": "// SPDX-License-Identifier: MIT\r\npragma solidity ^0.8.0;\r\n\r\ncontract MyAdmin {\r\n    struct PatientRecord {\r\n        string identity;\r\n        uint256 weight;\r\n        uint256 height;\r\n        string diseaseName;\r\n        string bloodType;\r\n        uint256 onsetDate;\r\n        string diseaseDescription;\r\n    }\r\n\r\n    mapping(address => PatientRecord) public patientRecords;\r\n\r\n    event MedicalRecordAdded(address indexed patient, string identity);\r\n\r\n    function addMedicalRecord(\r\n        string memory _identity,\r\n        uint256 _weight,\r\n        uint256 _height,\r\n        string memory _diseaseName,\r\n        string memory _bloodType,\r\n        uint256 _onsetDate,\r\n        string memory _diseaseDescription\r\n    ) external {\r\n        PatientRecord memory newRecord = PatientRecord({\r\n            identity: _identity,\r\n            weight: _weight,\r\n            height: _height,\r\n            diseaseName: _diseaseName,\r\n            bloodType: _bloodType,\r\n            onsetDate: _onsetDate,\r\n            diseaseDescription: _diseaseDescription\r\n        });\r\n\r\n        patientRecords[msg.sender] = newRecord;\r\n\r\n        emit MedicalRecordAdded(msg.sender, _identity);\r\n    }\r\n}\r\n",
  "sourcePath": "D:\\PROJECT-BC\\DataPasien\\contracts\\MyAdmin.sol",
  "compiler": {
    "name": "solc",
    "version": "0.8.16+commit.07a7930e.Emscripten.clang"
  },
  "schemaVersion": "3.4.16",
  "updatedAt": "2023-11-26T12:34:12.474Z",
  "networkType": "ethereum",
  "devdoc": {
    "kind": "dev",
    "methods": {},
    "version": 1
  },
  "userdoc": {
    "kind": "user",
    "methods": {},
    "version": 1
  }
}