{
  "contractName": "MyContract",
  "abi": [
    {
      "inputs": [
        {
          "internalType": "uint256",
          "name": "",
          "type": "uint256"
        }
      ],
      "name": "patients",
      "outputs": [
        {
          "internalType": "uint256",
          "name": "id",
          "type": "uint256"
        },
        {
          "internalType": "string",
          "name": "phoneNumber",
          "type": "string"
        },
        {
          "internalType": "string",
          "name": "emailAddress",
          "type": "string"
        },
        {
          "internalType": "string",
          "name": "password",
          "type": "string"
        },
        {
          "internalType": "string",
          "name": "dateOfBirth",
          "type": "string"
        },
        {
          "internalType": "string",
          "name": "addresst",
          "type": "string"
        },
        {
          "internalType": "string",
          "name": "gender",
          "type": "string"
        }
      ],
      "stateMutability": "view",
      "type": "function",
      "constant": true
    },
    {
      "inputs": [
        {
          "internalType": "uint256",
          "name": "id",
          "type": "uint256"
        },
        {
          "internalType": "string",
          "name": "phoneNumber",
          "type": "string"
        },
        {
          "internalType": "string",
          "name": "emailAddress",
          "type": "string"
        },
        {
          "internalType": "string",
          "name": "password",
          "type": "string"
        },
        {
          "internalType": "string",
          "name": "dateOfBirth",
          "type": "string"
        },
        {
          "internalType": "string",
          "name": "addresst",
          "type": "string"
        },
        {
          "internalType": "string",
          "name": "gender",
          "type": "string"
        }
      ],
      "name": "registerPatient",
      "outputs": [],
      "stateMutability": "nonpayable",
      "type": "function"
    },
    {
      "inputs": [
        {
          "internalType": "uint256",
          "name": "id",
          "type": "uint256"
        }
      ],
      "name": "getPatientById",
      "outputs": [
        {
          "components": [
            {
              "internalType": "uint256",
              "name": "id",
              "type": "uint256"
            },
            {
              "internalType": "string",
              "name": "phoneNumber",
              "type": "string"
            },
            {
              "internalType": "string",
              "name": "emailAddress",
              "type": "string"
            },
            {
              "internalType": "string",
              "name": "password",
              "type": "string"
            },
            {
              "internalType": "string",
              "name": "dateOfBirth",
              "type": "string"
            },
            {
              "internalType": "string",
              "name": "addresst",
              "type": "string"
            },
            {
              "internalType": "string",
              "name": "gender",
              "type": "string"
            }
          ],
          "internalType": "struct MyContract.Patient",
          "name": "",
          "type": "tuple"
        }
      ],
      "stateMutability": "view",
      "type": "function",
      "constant": true
    }
  ],
  "bytecode": "0x608060405234801561001057600080fd5b50611348806100206000396000f3fe608060405234801561001057600080fd5b50600436106100415760003560e01c806367a36e0b1461004657806393119a8314610076578063b05391a3146100ac575b600080fd5b610060600480360381019061005b91906109f2565b6100c8565b60405161006d9190610b7d565b60405180910390f35b610090600480360381019061008b91906109f2565b6104c2565b6040516100a39796959493929190610bf8565b60405180910390f35b6100c660048036038101906100c19190610dc6565b610834565b005b6100d061096b565b60008060008481526020019081526020016000206000015403610128576040517f08c379a000000000000000000000000000000000000000000000000000000000815260040161011f90610f82565b60405180910390fd5b6000808381526020019081526020016000206040518060e00160405290816000820154815260200160018201805461015f90610fd1565b80601f016020809104026020016040519081016040528092919081815260200182805461018b90610fd1565b80156101d85780601f106101ad576101008083540402835291602001916101d8565b820191906000526020600020905b8154815290600101906020018083116101bb57829003601f168201915b505050505081526020016002820180546101f190610fd1565b80601f016020809104026020016040519081016040528092919081815260200182805461021d90610fd1565b801561026a5780601f1061023f5761010080835404028352916020019161026a565b820191906000526020600020905b81548152906001019060200180831161024d57829003601f168201915b5050505050815260200160038201805461028390610fd1565b80601f01602080910402602001604051908101604052809291908181526020018280546102af90610fd1565b80156102fc5780601f106102d1576101008083540402835291602001916102fc565b820191906000526020600020905b8154815290600101906020018083116102df57829003601f168201915b5050505050815260200160048201805461031590610fd1565b80601f016020809104026020016040519081016040528092919081815260200182805461034190610fd1565b801561038e5780601f106103635761010080835404028352916020019161038e565b820191906000526020600020905b81548152906001019060200180831161037157829003601f168201915b505050505081526020016005820180546103a790610fd1565b80601f01602080910402602001604051908101604052809291908181526020018280546103d390610fd1565b80156104205780601f106103f557610100808354040283529160200191610420565b820191906000526020600020905b81548152906001019060200180831161040357829003601f168201915b5050505050815260200160068201805461043990610fd1565b80601f016020809104026020016040519081016040528092919081815260200182805461046590610fd1565b80156104b25780601f10610487576101008083540402835291602001916104b2565b820191906000526020600020905b81548152906001019060200180831161049557829003601f168201915b5050505050815250509050919050565b60006020528060005260406000206000915090508060000154908060010180546104eb90610fd1565b80601f016020809104026020016040519081016040528092919081815260200182805461051790610fd1565b80156105645780601f1061053957610100808354040283529160200191610564565b820191906000526020600020905b81548152906001019060200180831161054757829003601f168201915b50505050509080600201805461057990610fd1565b80601f01602080910402602001604051908101604052809291908181526020018280546105a590610fd1565b80156105f25780601f106105c7576101008083540402835291602001916105f2565b820191906000526020600020905b8154815290600101906020018083116105d557829003601f168201915b50505050509080600301805461060790610fd1565b80601f016020809104026020016040519081016040528092919081815260200182805461063390610fd1565b80156106805780601f1061065557610100808354040283529160200191610680565b820191906000526020600020905b81548152906001019060200180831161066357829003601f168201915b50505050509080600401805461069590610fd1565b80601f01602080910402602001604051908101604052809291908181526020018280546106c190610fd1565b801561070e5780601f106106e35761010080835404028352916020019161070e565b820191906000526020600020905b8154815290600101906020018083116106f157829003601f168201915b50505050509080600501805461072390610fd1565b80601f016020809104026020016040519081016040528092919081815260200182805461074f90610fd1565b801561079c5780601f106107715761010080835404028352916020019161079c565b820191906000526020600020905b81548152906001019060200180831161077f57829003601f168201915b5050505050908060060180546107b190610fd1565b80601f01602080910402602001604051908101604052809291908181526020018280546107dd90610fd1565b801561082a5780601f106107ff5761010080835404028352916020019161082a565b820191906000526020600020905b81548152906001019060200180831161080d57829003601f168201915b5050505050905087565b6000806000898152602001908152602001600020600001541461088c576040517f08c379a000000000000000000000000000000000000000000000000000000000815260040161088390611074565b60405180910390fd5b6040518060e00160405280888152602001878152602001868152602001858152602001848152602001838152602001828152506000808981526020019081526020016000206000820151816000015560208201518160010190816108f09190611240565b5060408201518160020190816109069190611240565b50606082015181600301908161091c9190611240565b5060808201518160040190816109329190611240565b5060a08201518160050190816109489190611240565b5060c082015181600601908161095e9190611240565b5090505050505050505050565b6040518060e00160405280600081526020016060815260200160608152602001606081526020016060815260200160608152602001606081525090565b6000604051905090565b600080fd5b600080fd5b6000819050919050565b6109cf816109bc565b81146109da57600080fd5b50565b6000813590506109ec816109c6565b92915050565b600060208284031215610a0857610a076109b2565b5b6000610a16848285016109dd565b91505092915050565b610a28816109bc565b82525050565b600081519050919050565b600082825260208201905092915050565b60005b83811015610a68578082015181840152602081019050610a4d565b60008484015250505050565b6000601f19601f8301169050919050565b6000610a9082610a2e565b610a9a8185610a39565b9350610aaa818560208601610a4a565b610ab381610a74565b840191505092915050565b600060e083016000830151610ad66000860182610a1f565b5060208301518482036020860152610aee8282610a85565b91505060408301518482036040860152610b088282610a85565b91505060608301518482036060860152610b228282610a85565b91505060808301518482036080860152610b3c8282610a85565b91505060a083015184820360a0860152610b568282610a85565b91505060c083015184820360c0860152610b708282610a85565b9150508091505092915050565b60006020820190508181036000830152610b978184610abe565b905092915050565b610ba8816109bc565b82525050565b600082825260208201905092915050565b6000610bca82610a2e565b610bd48185610bae565b9350610be4818560208601610a4a565b610bed81610a74565b840191505092915050565b600060e082019050610c0d600083018a610b9f565b8181036020830152610c1f8189610bbf565b90508181036040830152610c338188610bbf565b90508181036060830152610c478187610bbf565b90508181036080830152610c5b8186610bbf565b905081810360a0830152610c6f8185610bbf565b905081810360c0830152610c838184610bbf565b905098975050505050505050565b600080fd5b600080fd5b7f4e487b7100000000000000000000000000000000000000000000000000000000600052604160045260246000fd5b610cd382610a74565b810181811067ffffffffffffffff82111715610cf257610cf1610c9b565b5b80604052505050565b6000610d056109a8565b9050610d118282610cca565b919050565b600067ffffffffffffffff821115610d3157610d30610c9b565b5b610d3a82610a74565b9050602081019050919050565b82818337600083830152505050565b6000610d69610d6484610d16565b610cfb565b905082815260208101848484011115610d8557610d84610c96565b5b610d90848285610d47565b509392505050565b600082601f830112610dad57610dac610c91565b5b8135610dbd848260208601610d56565b91505092915050565b600080600080600080600060e0888a031215610de557610de46109b2565b5b6000610df38a828b016109dd565b975050602088013567ffffffffffffffff811115610e1457610e136109b7565b5b610e208a828b01610d98565b965050604088013567ffffffffffffffff811115610e4157610e406109b7565b5b610e4d8a828b01610d98565b955050606088013567ffffffffffffffff811115610e6e57610e6d6109b7565b5b610e7a8a828b01610d98565b945050608088013567ffffffffffffffff811115610e9b57610e9a6109b7565b5b610ea78a828b01610d98565b93505060a088013567ffffffffffffffff811115610ec857610ec76109b7565b5b610ed48a828b01610d98565b92505060c088013567ffffffffffffffff811115610ef557610ef46109b7565b5b610f018a828b01610d98565b91505092959891949750929550565b7f50617469656e742077697468207468697320494420646f6573206e6f7420657860008201527f6973740000000000000000000000000000000000000000000000000000000000602082015250565b6000610f6c602383610bae565b9150610f7782610f10565b604082019050919050565b60006020820190508181036000830152610f9b81610f5f565b9050919050565b7f4e487b7100000000000000000000000000000000000000000000000000000000600052602260045260246000fd5b60006002820490506001821680610fe957607f821691505b602082108103610ffc57610ffb610fa2565b5b50919050565b7f50617469656e742077697468207468697320494420616c72656164792065786960008201527f7374730000000000000000000000000000000000000000000000000000000000602082015250565b600061105e602383610bae565b915061106982611002565b604082019050919050565b6000602082019050818103600083015261108d81611051565b9050919050565b60008190508160005260206000209050919050565b60006020601f8301049050919050565b600082821b905092915050565b6000600883026110f67fffffffffffffffffffffffffffffffffffffffffffffffffffffffffffffffff826110b9565b61110086836110b9565b95508019841693508086168417925050509392505050565b6000819050919050565b600061113d611138611133846109bc565b611118565b6109bc565b9050919050565b6000819050919050565b61115783611122565b61116b61116382611144565b8484546110c6565b825550505050565b600090565b611180611173565b61118b81848461114e565b505050565b5b818110156111af576111a4600082611178565b600181019050611191565b5050565b601f8211156111f4576111c581611094565b6111ce846110a9565b810160208510156111dd578190505b6111f16111e9856110a9565b830182611190565b50505b505050565b600082821c905092915050565b6000611217600019846008026111f9565b1980831691505092915050565b60006112308383611206565b9150826002028217905092915050565b61124982610a2e565b67ffffffffffffffff81111561126257611261610c9b565b5b61126c8254610fd1565b6112778282856111b3565b600060209050601f8311600181146112aa5760008415611298578287015190505b6112a28582611224565b86555061130a565b601f1984166112b886611094565b60005b828110156112e0578489015182556001820191506020850194506020810190506112bb565b868310156112fd57848901516112f9601f891682611206565b8355505b6001600288020188555050505b50505050505056fea26469706673582212205439ced9ea4840de246b1b678a2780f0cc4c8269e8b1d7f67725fc2b3b03f11d64736f6c63430008100033",
  "immutableReferences": {},
  "source": "// SPDX-License-Identifier: MIT\r\npragma solidity ^0.8.0;\r\n\r\ncontract MyContract {\r\n    struct Patient {\r\n        uint256 id;\r\n        string phoneNumber;\r\n        string emailAddress;\r\n        string password;\r\n        string dateOfBirth;\r\n        string addresst;\r\n        string gender;\r\n    }\r\n\r\n    mapping(uint256 => Patient) public patients;\r\n\r\n    function registerPatient(uint256 id, string memory phoneNumber, string memory emailAddress, string memory password, string memory dateOfBirth, string memory addresst, string memory gender) public {\r\n        require(patients[id].id == 0, \"Patient with this ID already exists\");\r\n\r\n        patients[id] = Patient({\r\n            id: id,\r\n            phoneNumber: phoneNumber,\r\n            emailAddress: emailAddress,\r\n            password: password,\r\n            dateOfBirth: dateOfBirth,\r\n            addresst: addresst,\r\n            gender: gender\r\n        });\r\n    }\r\n\r\n    function getPatientById(uint256 id) public view returns (Patient memory) {\r\n        require(patients[id].id != 0, \"Patient with this ID does not exist\");\r\n\r\n        return patients[id];\r\n    }\r\n}\r\n",
  "sourcePath": "D:\\PROJECT-BC\\DataPasien\\contracts\\MyContract.sol",
  "compiler": {
    "name": "solc",
    "version": "0.8.16+commit.07a7930e.Emscripten.clang"
  },
  "schemaVersion": "3.4.16",
  "updatedAt": "2023-11-26T12:34:11.951Z",
  "networkType": "ethereum",
  "devdoc": {
    "kind": "dev",
    "methods": {},
    "version": 1
  },
  "userdoc": {
    "kind": "user",
    "methods": {},
    "version": 1
  }
}